:100000000C942A000C943F000C943F000C943F0089
:100010000C943F000C943F000C943F000C943F0064
:100020000C943F000C943F000C943F000C943F0054
:100030000C943F000C943F000C943F000C943F0044
:100040000C943F000C943F000C943F000C943F0034
:100050000C943F0011241FBECFE5D8E0DEBFCDBF1A
:1000600010E0A0E6B0E0ECECF0E002C005900D92EC
:10007000A236B107D9F70E9451000C9464000C9489
:1000800000008AB188618AB980B5866880BD809198
:10009000600089B908955D9BFECF8CB95E9BFECF51
:1000A00008958AB188618AB980B5866880BD8091DB
:1000B000600089B95F9BFECF8CB10E944B00FACFE4
:0C00C0005F9BFECF8CB10895F894FFCF39
:0200CC003300FF
:00000001FF
